:100000000C9434000C9451000C9451000C94510049
:100010000C9429010C9451000C9451000C94510043
:100020000C9451000C9451000C9451000C9451000C
:100030000C9451000C9451000C9451000C945100FC
:100040000C9451000C9451000C9451000C945100EC
:100050000C9451000C9451000C9451000C945100DC
:100060000C9451000C94510011241FBECFEFD8E026
:10007000DEBFCDBF12E0A0E0B1E0E0E0FBE102C0F6
:1000800005900D92AC35B107D9F722E0ACE5B2E0AE
:1000900001C01D92A436B207E1F70E94E1010C9461
:1000A0007E0D0C9400002D9A85E38A95F1F70000EF
:1000B0002D9808950E94530018990CC025E32A95A5
:1000C000F1F700002D9A85E38A95F1F700002D984D
:1000D000189BF4CF189B0EC060E070E0CB016F5FFF
:1000E0007F4F8F4F9F4F25E02A95F1F70000189919
:1000F000F6CF03C060E070E0CB010E949C0B26E9C4
:1001000033E44BE05DE30E94020C20E030E040E08D
:100110005FE30E94020C0E946D0BCB0108958BB926
:100120002A982B982C9A85E08A95F1F700002C9854
:100130008FE39FE10197F1F700C0000008958BB9AC
:100140002A9A2B982C9A85E08A95F1F700002C9832
:100150008FE39FE10197F1F700C0000008958FEF52
:1001600084B98AB92FEF89EF90E021508040904008
:10017000E1F700C0000088E30E948F008CE00E943D
:100180008F0086E00E948F0081E00E948F008FE345
:100190009FE10197F1F700C0000080E80E948F0006
:1001A0000895CF93DF93EC018881882331F0219665
:1001B0000E949F0089918111FBCFDF91CF9108951B
:1001C00081E00E948F0080E80E948F0008958130B6
:1001D00029F480E8860F0E948F000895823021F470
:1001E00080EC860F0E948F0008950F931F93CF938A
:1001F000DF93883080F48B01880F880F880F805C34
:100200000E948F00E801085F1F4F89910E949F00A4
:10021000C017D107D1F7DF91CF911F910F910895AA
:100220000F931F93CF93DF938C01EB01CA010E94C0
:10023000100D0E940B0DBE016F5F7F4F601B710B95
:100240000E94970C800F911FDF91CF911F910F910A
:1002500008951F920F920FB60F9211248F939F93C0
:1002600081E090E09093630280936202809160024B
:1002700090916102892B31F081E090E090935F02D0
:1002800080935E029F918F910F900FBE0F901F90F1
:10029000189588E08093C10086E08093C20087E6CD
:1002A0008093C4000895E0ECF0E0908195FFFDCFCD
:1002B0008093C60008951F93CF93DF93182F40912A
:1002C0005C0250915D0262E070E081E090E00E948B
:1002D0001001C82FD92F6FE00E94E700812F0E94E4
:1002E0009F008C2F9D2FDF91CF911F9108950F9329
:1002F0001F93CF93DF938B01AC01440F551F9C01DB
:10030000220F331F220F331F220F331F240F351FDD
:10031000009701F1E0E0F0E0CAE0D0E0BE010E9409
:10032000970CCB0131960097C9F71E161F0694F45F
:10033000E00FF11FCAE0D0E0C901BE010E94970C96
:100340009B01CB01BE010E94970C805D82930E172A
:100350001F0791F7DF91CF911F910F910895219A77
:10036000E0E8F0E0808182688083E1E8F0E080816D
:100370008A61808387EA91E6909387008093860064
:1003800083E090E0E8E8F0E043E253E12FEA34E074
:10039000518340836FEF73EDA0E361507040A04044
:1003A000E1F700C00000318320836FEF73EDA0E31D
:1003B00061507040A040E1F700C00000019741F794
:1003C00008952F923F924F925F926F927F928F92F9
:1003D0009F92AF92BF92CF92DF92EF92FF920F93D4
:1003E0001F93CF93DF93CDB7DEB7CB56D1090FB6AE
:1003F000F894DEBF0FBECDBF389A4098F894E8E677
:10040000F0E0808182608083ECE6F0E080818160B2
:10041000808382E080936900789440910401509138
:10042000050162E070E081E090E00E9410017C0133
:1004300088E0E6E0F1E0DE01119601900D928A95E8
:10044000E1F788E0EEE0F1E0DE01199601900D920F
:100450008A95E1F788E0E6E1F1E0DE01519601904E
:100460000D928A95E1F788E0EEE1F1E0DE01599620
:1004700001900D928A95E1F788E0E6E2F1E0DE0175
:10048000919601900D928A95E1F788E0EEE2F1E015
:10049000DE01999601900D928A95E1F788E0E6E3F6
:1004A000F1E0DE01D19601900D928A95E1F788E0A6
:1004B000EEE3F1E0DE01D99601900D928A95E1F725
:1004C0000E94AF00BE016F5F7F4F80E00E94F50089
:1004D000BE01675F7F4F81E00E94F500BE016F5E45
:1004E0007F4F82E00E94F500BE01675E7F4F83E090
:1004F0000E94F500BE016F5D7F4F84E00E94F50011
:10050000BE01675D7F4F85E00E94F500BE016F5C14
:100510007F4F86E00E94F500BE01675C7F4F87E059
:100520000E94F500259A20982FEF3FEFA0963FAF4D
:100530002EAFA09788248A94982C6E961FAE1EAE7C
:100540006E97212C312CA6961FAE1EAEA697A296B2
:100550001FAE1EAEA297A4961FAE1EAEA497A8967D
:100560001FAE1EAEA897C12CD12C6C961FAE1EAE2E
:100570006C97412C512C0F2EFFE06F2E712CF02D1B
:100580008FEF9FEFAA969FAF8EAFAA97EFEFFFEF87
:10059000AC96FFAFEEAFAC97A12CB12CF1E06A9610
:1005A000FFAF6A979E01255B3F4F67963FAF2EAF27
:1005B0006797CE018F5B9F4F69969FAF8EAF69970C
:1005C000A4C0E1E0F0E0F0936102E09360020E94D9
:1005D000E00060E081E00E94E70086E491E00E9494
:1005E000D10060E082E00E94E70082E591E00E9495
:1005F000D10066E082E00E94E70082E00E949F0056
:1006000067E082E00E94E70080E20E949F0068E0CD
:1006100082E00E94E70083E00E949F0080915E02DA
:1006200090915F02892B09F467C00E94E00060E0AE
:1006300081E00E94E70088E591E00E94D10060E03F
:1006400082E00E94E70087E691E00E94D1006C966C
:100650002EAD3FAD6C97232BA9F4BE016F5E7F4F8B
:1006600080E00E94F50081E090E0A8969FAF8EAFF9
:10067000A897C12CD12CE1E0F0E06C96FFAFEEAF73
:100680006C972CC06C962EAD3FAD6C972130310528
:10069000A9F4BE01675E7F4F80E00E94F500A89636
:1006A0001FAE1EAEA897CC24C394D12C32E06B961B
:1006B0003FAF6B976C961FAE6C9710C0BE016F5F1B
:1006C0007F4F80E00E94F500A8961FAE1EAEA8974F
:1006D000C12CD12C6C961FAE1EAE6C9710925F028F
:1006E00010925E028FEF93EDE0E381509040E04086
:1006F000E1F700C000000EC0FFEF23ED30E3F15042
:1007000020403040E1F700C000000E945A000597E9
:1007100008F457CF10926102109260026A960FADF2
:100720006A97017010E0C8010196E816F90609F011
:1007300070C0A614B70409F06CC0DDC621143104E2
:1007400009F067C00E94E00060E081E00E94E700DD
:1007500085E791E00E94D1006AE081E00E94E70015
:1007600081E00E949F0060E082E00E94E7008FE746
:1007700091E00E94D10066E082E00E94E7008E01D5
:100780000F5B1F4F8AE0F80111928A95E9F780917B
:100790005C0290915D02B8010E947701C8010E943D
:1007A000D100FFEF21E13AE7F15020403040E1F77E
:1007B00000C000000E94E00060E081E00E94E700CD
:1007C00086E891E00E94D10060E082E00E94E700AC
:1007D00083E991E00E94D1000E94AF010E94E000F5
:1007E00060E081E00E94E7008CE991E00E94D10086
:1007F00060E082E00E94E70088EA91E00E94D10078
:100800000E94490180915C0290915D020E94530117
:1008100048C78816990609F074C0A0968EAD9FADA2
:10082000A097A816B90609F06CC06AC62114310455
:1008300009F067C00E94E00060E081E00E94E700EC
:1008400085E791E00E94D1006AE081E00E94E70024
:1008500081E00E949F0060E082E00E94E7008FE755
:1008600091E00E94D10066E082E00E94E7008E01E4
:100870000F5B1F4F8AE0F80111928A95E9F780918A
:100880005C0290915D02B8010E947701C8010E944C
:10089000D100FFEF21E13AE7F15020403040E1F78D
:1008A00000C000000E94E00060E081E00E94E700DC
:1008B00086E891E00E94D10060E082E00E94E700BB
:1008C00083E991E00E94D1000E94AF010E94E00004
:1008D00060E081E00E94E7008CE991E00E94D10095
:1008E00060E082E00E94E70088EA91E00E94D10087
:1008F0000E94490180915C0290915D020E94530127
:10090000D0C60E94E0004114510409F046C060E0E6
:1009100081E00E94E70088EB91E00E94D10069E04D
:1009200081E00E94E70080E00E949F0081E00E9439
:100930009F0060E082E00E94E70081EC91E00E946D
:10094000D1008091620290916302019709F09FC6E5
:1009500010926302109262020E94E00060E081E067
:100960000E94E70080ED91E00E94D1008FEF9DE3AF
:10097000E9E481509040E040E1F700C000000E94AF
:10098000E000FFEF29E638E1F15020403040E1F788
:1009900000C0000044244394512C60E081E00E9498
:1009A000E7006796EEADFFAD67972AE011922A95B2
:1009B000E9F780915C0290915D02BE01655B7F4F1B
:1009C0000E947701CE01855B9F4F0E94D100A296C5
:1009D0008EAD9FADA297019709F065C0A496EEADCC
:1009E000FFADA497E230F1050CF05DC03196A496FE
:1009F000FFAFEEAFA4970E94E00060E081E00E94AC
:100A0000E7008FED91E00E94D100FFEF27EA31E689
:100A1000F15020403040E1F700C00000A4968EADB8
:100A20009FADA4970197D1F40E94E00060E081E0BF
:100A30000E94E70089EE91E00E94D1009FEFEDE374
:100A4000F9E49150E040F040E1F700C000000E945E
:100A5000E000A2961FAE1EAEA29725C0A4962EADB2
:100A60003FADA49722303105D1F40E94E00060E050
:100A700081E00E94E70088EF91E00E94D1003FEF03
:100A80008DE399E4315080409040E1F700C00000D0
:100A90000E94E000A2961FAE1EAEA29704C0A296CE
:100AA0001FAE1EAEA297E1E02E16310409F059C028
:100AB00080916202909163020197A1F46A96FFAD62
:100AC0006A97FF5F6A96FFAF6A972FEF35EA8EE06D
:100AD000215030408040E1F700C0000010926302D6
:100AE000109262026A969FAD6A979170B92E64E087
:100AF00081E0890F0E94E70080E00E949F00662D40
:100B00008E2D0E94E70084E00E949F006114710412
:100B1000C1F0E1E06E1A7108FFEF25EA3EE0F15006
:100B200020403040E1F700C000008B2D90E001969E
:100B3000E816F90641F484E06816710409F4E5C486
:100B400002C0212C312C9FEFE5EAFEE09150E040FD
:100B5000F040E1F700C000006894AA24A2F8B12C8C
:100B6000D4CD6E962EAD3FAD6E972F3F8FEF3807E9
:100B700029F02130310509F0ABC01DC00E94E00012
:100B800060E081E00E94E70087E092E00E94D100EF
:100B900060E082E00E94E70089ED91E00E94D100D0
:100BA0009FEFEDE3F9E49150E040F040E1F700C041
:100BB00000000E94E0008091620290916302019720
:100BC000A1F46A962FAD6A972F5F6A962FAF6A9746
:100BD0003FEF83EC99E0315080409040E1F700C056
:100BE000000010926302109262026A96EFAD6A975B
:100BF000E170BE2E64E081E08E0F0E94E70080E08D
:100C00000E949F00662D8E2D0E94E70084E00E94C6
:100C10009F006114710461F1F1E0EF22F0E8FF221E
:100C2000FF2054F421E0E21AF1083EEFE32AFF240A
:100C3000FA948FEFE81AF80A9FEFE91AF90AE1E04F
:100C40006E1A7108FFEF22E537E0F1502040304086
:100C5000E1F700C000008B2D90E00196E816F90640
:100C600009F001C584E06816710409F0FCC477C47A
:100C70000E94E00060E081E00E94E70084E192E0F1
:100C80000E94D10060E082E00E94E7008EE192E0E5
:100C90000E94D1009FEFE3EDF0E39150E040F0407F
:100CA000E1F700C000006E961FAE1EAE6E9721E009
:100CB00030E0A2963FAF2EAFA29781E090E0A496DD
:100CC0009FAF8EAFA4976894AA24A2F8B12C1DCD33
:100CD000A496EEADFFADA497EF2B09F046C180912D
:100CE0006202909163020197A1F46A96FFAD6A9740
:100CF000FF5F6A96FFAF6A972FEF35EA8EE02150CB
:100D000030408040E1F700C0000010926302109272
:100D100062026A969FAD6A979170B92E64E081E095
:100D2000890F0E94E70080E00E949F00662D8E2DB3
:100D30000E94E70081E00E949F006114710469F045
:100D4000E1E06E1A7108FFEF25EA3EE0F150204025
:100D50003040E1F700C0000013C0A6968EAD9FADF5
:100D6000A6970196A6969FAF8EAFA69781E090E0DA
:100D70000E945B017C010F2EFFE06F2E712CF02D85
:100D8000A896EEADFFADA897319709F0C3C0AC9619
:100D90002EAD3FADAC972F3F3F4FC1F48B2D90E070
:100DA000FC013196AC96FFAFEEAFAC9765E0AB9629
:100DB0008FADAB970E94E70087E00E949F0025E07F
:100DC00030E0AA963FAF2EAFAA9711C0A9966FAD9B
:100DD000A997AB968FADAB970E94E70087E00E9482
:100DE0009F00AA968EAD9FADAA970F9751F0AA9635
:100DF000EEADFFADAA973196AA96FFAFEEAFAA97D8
:100E00000FC08B2D90E09C012F5F3F4FAC963FAF02
:100E10002EAFAC9785E090E0AA969FAF8EAFAA97D1
:100E2000AC96EEADFFADAC97EE15FF0509F072C0C4
:100E3000C3010197AA962EAD3FADAA97281739078F
:100E400021F02615370509F061C08B2D90E0FC01DB
:100E50003196AC96FFAFEEAFAC9781E090E00E9488
:100E60005B017C01A6962EAD3FADA6972F5F3F4F4D
:100E7000A6963FAF2EAFA69780915C0290915D023F
:100E8000079690935D0280935C020E94E00060E010
:100E900081E00E94E7008AE292E00E94D10060E0D7
:100EA00082E00E94E7008FE791E00E94D10066E0B7
:100EB00082E00E94E7006996EEADFFAD69972AE0F7
:100EC00011922A95E9F780915C0290915D02BE0132
:100ED0006F5B7F4F0E947701CE018F5B9F4F0E9417
:100EE000D1003FEF85EA9EE0315080409040E1F72D
:100EF00000C000000F2EFFE06F2E712CF02DE5E0FA
:100F0000F0E0AA96FFAFEEAFAA9704C0AC96EEACA5
:100F1000FFACAC97A6962EAD3FADA6972430310519
:100F20006CF022242394312CA6961FAE1EAEA697F9
:100F300081E090E0A2969FAF8EAFA29780915C0275
:100F400090915D02019690935D0280935C029FEF09
:100F5000E5EAFEE09150E040F040E1F700C000001B
:100F60006894AA24A2F8B12CD0CBA4962EAD3FADA4
:100F7000A4972130310509F048C180916202909117
:100F800063020197A1F46A963FAD6A973F5F6A9644
:100F90003FAF6A978FEF95EAEEE081509040E040D6
:100FA000E1F700C0000010926302109262026A969C
:100FB000FFAD6A97F170BF2E66E081E08F0F0E944F
:100FC000E70080E00E949F00662D8E2D0E94E700C2
:100FD00085E00E949F006114710469F021E0621AAB
:100FE00071083FEF81EE94E0315080409040E1F78E
:100FF00000C0000013C0A696EEADFFADA6973196D7
:10100000A696FFAFEEAFA69785E090E00E945B0149
:101010007C010F2EFFE06F2E712CF02DA8962EADC7
:101020003FADA8972130310509F0C3C0AC968EAD15
:101030009FADAC970196C9F48B2D90E09C012F5F7A
:101040003F4FAC963FAF2EAFAC9767E0AB968FADFE
:10105000AB970E94E70087E00E949F0087E090E046
:10106000AA969FAF8EAFAA9711C0A9966FADA99708
:10107000AB968FADAB970E94E70087E00E949F0080
:10108000AA96EEADFFADAA973F9759F0AA962EAD5E
:101090003FADAA972F5F3F4FAA963FAF2EAFAA97BB
:1010A0000EC08B2D90E0FC013196AC96FFAFEEAFF9
:1010B000AC9727E030E0AA963FAF2EAFAA97AC9648
:1010C0008EAD9FADAC978E159F0509F072C0C30120
:1010D0000197AA96EEADFFADAA97E817F90721F0A0
:1010E000E615F70509F061C08B2D90E09C012F5F9C
:1010F0003F4FAC963FAF2EAFAC9781E090E00E949F
:101100005B017C01A6968EAD9FADA6970196A69633
:101110009FAF8EAFA69780915C0290915D020F9673
:1011200090935D0280935C020E94E00060E081E0A9
:101130000E94E70083E392E00E94D10060E082E039
:101140000E94E7008FE791E00E94D10066E082E014
:101150000E94E7006996EEADFFAD69972AE0119213
:101160002A95E9F780915C0290915D02BE016F5B68
:101170007F4F0E947701CE018F5B9F4F0E94D1006D
:101180003FEF85EA9EE0315080409040E1F700C09B
:1011900000000F2EFFE06F2E712CF02DE7E0F0E045
:1011A000AA96FFAFEEAFAA9704C0AC96EEACFFAC28
:1011B000AC97A6962EAD3FADA697283031056CF0C2
:1011C00022242394312CA6961FAE1EAEA69781E052
:1011D00090E0A2969FAF8EAFA29780915C02909113
:1011E0005D02019690935D0280935C029FEFE1EEB9
:1011F000F4E09150E040F040E1F700C000000F2E15
:10120000F6E0AF2EB12CF02D80CAA4962EAD3FADE6
:10121000A4972230310509F044C280916202909176
:1012200063020197A1F46A963FAD6A973F5F6A96A1
:101230003FAF6A978FEF91EEE4E081509040E0403D
:10124000E1F700C0000010926302109262026A96F9
:10125000FFAD6A97F170BF2E67E081E08F0F0E94AB
:10126000E70080E00E949F00662D8E2D0E94E7001F
:1012700086E00E949F006114710469F021E0621A07
:1012800071083FEF81EE94E0315080409040E1F7EB
:1012900000C0000013C0A696EEADFFADA697319634
:1012A000A696FFAFEEAFA69786E090E00E945B01A6
:1012B0007C010F2EFFE06F2E712CF02DA8962EAD25
:1012C0003FADA8972130310509F0C3C0AC968EAD73
:1012D0009FADAC970196C9F48B2D90E09C012F5FD8
:1012E0003F4FAC963FAF2EAFAC9768E0AB968FAD5B
:1012F000AB970E94E70087E00E949F0088E090E0A3
:10130000AA969FAF8EAFAA9711C0A9966FADA99765
:10131000AB968FADAB970E94E70087E00E949F00DD
:10132000AA96EEADFFADAA973F9759F0AA962EADBB
:101330003FADAA972F5F3F4FAA963FAF2EAFAA9718
:101340000EC08B2D90E0FC013196AC96FFAFEEAF56
:10135000AC9728E030E0AA963FAF2EAFAA97AC96A4
:101360008EAD9FADAC978E159F0509F072C0C3017D
:101370000197AA96EEADFFADAA97E817F90721F0FD
:10138000E615F70509F061C08B2D90E09C012F5FF9
:101390003F4FAC963FAF2EAFAC9781E090E00E94FC
:1013A0005B017C01A6968EAD9FADA6970196A69691
:1013B0009FAF8EAFA69780915C0290915D0245969B
:1013C00090935D0280935C020E94E00060E081E007
:1013D0000E94E7008DE392E00E94D10060E082E08D
:1013E0000E94E7008FE791E00E94D10066E082E072
:1013F0000E94E7006996EEADFFAD69972AE0119271
:101400002A95E9F780915C0290915D02BE016F5BC5
:101410007F4F0E947701CE018F5B9F4F0E94D100CA
:101420003FEF85EA9EE0315080409040E1F700C0F8
:1014300000000F2EFFE06F2E712CF02DE8E0F0E0A1
:10144000AA96FFAFEEAFAA9704C0AC96EEACFFAC85
:10145000AC97FFEF8F169F0641F49301215031099D
:10146000A0963FAF2EAFA09747016F966FAD6F97D5
:10147000882D0E94E70081E00E949F00A0968EAD1B
:101480009FADA097992334F00297A0969FAF8EAF9F
:10149000A09707C0F3013197A096FFAFEEAFA097DA
:1014A0004701A6962EAD3FADA6972A3031055CF0D8
:1014B0003FEF6D963FAF6D976E963FAF6E97A696D6
:1014C0001FAE1EAEA69780915C0290915D020196C0
:1014D00090935D0280935C028FEF92E5E7E081508C
:1014E0009040E040E1F700C000000F2EF7E0AF2E83
:1014F000F02DB12C0AC9C114D10409F41FC989C93E
:10150000C114D10409F492C9FCC90E94E00060E052
:1015100081E00E94E70087E492E00E94D100809180
:101520005C0290915D028C599F4F90935D02809375
:101530005C0281E090E00E945B017C01FFEF23ED03
:1015400030E3F15020403040E1F700C00000212C92
:10155000312C0F2EFFE06F2E712CF02DF4CA0E945B
:10156000E00060E081E00E94E70083E592E00E94F5
:10157000D1008FEF97EAE1E681509040E040E1F73B
:1015800000C0000080915C0290915D0288519C4FE8
:1015900090935D0280935C020E94E00060E081E035
:1015A0000E94E70085E791E00E94D1006AE081E0B7
:1015B0000E94E70084E00E949F0060E082E00E94B9
:1015C000E7008FE791E00E94D10066E082E00E9490
:1015D000E7008E010F5B1F4F8AE0F80111928A9598
:1015E000E9F780915C0290915D02B8010E94770159
:1015F000C8010E94D100FFEF21E13AE7F1502040FD
:101600003040E1F700C000000E94E00060E081E0AF
:101610000E94E70086E891E00E94D10060E082E04D
:101620000E94E70083E991E00E94D1000E94AF018F
:101630000E94E00060E081E00E94E7008CE991E018
:101640000E94D10060E082E00E94E70088EA91E019
:101650000E94D1000E94490180915C0290915D023C
:101660000E9453011EC08FEF95EAEEE0815090403A
:10167000E040E1F700C0000021E030E06E963FAFAF
:101680002EAF6E976894AA24A2F8B12C3EC83FEF03
:1016900089E698E1315080409040E1F700C00000B9
:1016A00034C880E090E0C559DF4F0FB6F894DEBF34
:1016B0000FBECDBFDF91CF911F910F91FF90EF90A3
:1016C000DF90CF90BF90AF909F908F907F906F9062
:1016D0005F904F903F902F9008950E94E10B88F00B
:1016E0009F5798F0B92F9927B751B0F0E1F0660FE6
:1016F000771F881F991F1AF0BA95C9F714C0B13027
:1017000091F00E94FB0BB1E008950C94FB0B672F46
:10171000782F8827B85F39F0B93FCCF38695779555
:101720006795B395D9F73EF490958095709561953E
:101730007F4F8F4F9F4F0895E89409C097FB3EF469
:1017400090958095709561957F4F8F4F9F4F99230E
:10175000A9F0F92F96E9BB279395F695879577958C
:101760006795B795F111F8CFFAF4BB0F11F460FF4C
:101770001BC06F5F7F4F8F4F9F4F16C0882311F0A4
:1017800096E911C0772321F09EE8872F762F05C0B8
:10179000662371F096E8862F70E060E02AF09A9553
:1017A000660F771F881FDAF7880F9695879597F948
:1017B000089557FD9058440F551F59F05F3F71F041
:1017C0004795880F97FB991F61F09F3F79F08795A8
:1017D0000895121613061406551FF2CF4695F1DF31
:1017E00008C0161617061806991FF1CF86957105C1
:1017F000610508940895E894BB2766277727CB01F5
:1018000097F908950E94150C0C94860C0E94780C90
:1018100038F00E947F0C20F0952311F00C946F0C8F
:101820000C94750C11240C94FC0B0E94D90B70F3D2
:10183000959FC1F3950F50E0551F629FF001729F75
:10184000BB27F00DB11D639FAA27F00DB11DAA1F84
:10185000649F6627B00DA11D661F829F2227B00DD1
:10186000A11D621F739FB00DA11D621F839FA00D5C
:10187000611D221F749F3327A00D611D231F849FAC
:10188000600D211D822F762F6A2F11249F57504003
:101890009AF0F1F088234AF0EE0FFF1FBB1F661F7E
:1018A000771F881F91505040A9F79E3F510580F047
:1018B0000C946F0C0C94FC0B5F3FE4F3983ED4F354
:1018C000869577956795B795F795E7959F5FC1F7EB
:1018D000FE2B880F911D9695879597F9089597F996
:1018E0009F6780E870E060E008959FEF80EC0895C6
:1018F00000240A94161617061806090608950024EF
:101900000A9412161306140605060895092E039468
:10191000000C11F4882352F0BB0F40F4BF2B11F4DC
:1019200060FF04C06F5F7F4F8F4F9F4F089597FBFD
:10193000072E16F4009407D077FD09D00E94AB0C57
:1019400007FC05D03EF4909581959F4F08957095C2
:1019500061957F4F0895AA1BBB1B51E107C0AA1FC9
:10196000BB1FA617B70710F0A61BB70B881F991F40
:101970005A95A9F780959095BC01CD0108958F9255
:101980009F92AF92BF92CF92DF92EF92FF92CF934E
:10199000DF93EC01688179818A819B8161157105F2
:1019A0008105910521F464E279ED8BE597E02DE165
:1019B00033EF41E050E00E941B0D49015A019B01A9
:1019C000AC01A7EAB1E40E943A0D6B017C01ACEED8
:1019D000B4EFA50194010E94480DDC01CB018C0DF0
:1019E0009D1DAE1DBF1DB7FF03C00197A109B048E3
:1019F00088839983AA83BB839F77DF91CF91FF90E0
:101A0000EF90DF90CF90BF90AF909F908F90089510
:101A10000E94BF0C089580E091E00E94BF0C0895E1
:101A2000A0E0B0E08093000190930101A093020137
:101A3000B09303010895052E97FB1EF400940E94B5
:101A4000320D57FD07D00E944D0D07FC03D04EF418
:101A50000C94320D50954095309521953F4F4F4F46
:101A60005F4F089590958095709561957F4F8F4F4A
:101A70009F4F08950E946F0DA59F900DB49F900DEC
:101A8000A49F800D911D11240895B7FF0C943A0D69
:101A90000E943A0D821B930B0895A1E21A2EAA1BF5
:101AA000BB1BFD010DC0AA1FBB1FEE1FFF1FA2170E
:101AB000B307E407F50720F0A21BB30BE40BF50B0B
:101AC000661F771F881F991F1A9469F76095709594
:101AD000809590959B01AC01BD01CF010895A29F17
:101AE000B001B39FC001A39F700D811D1124911DF2
:101AF000B29F700D811D1124911D0895F894FFCFA0
:101B000001000000B6000E0C061F0E1B1B110E1F5D
:101B100015151F0E0A0E18081C0B1C081800040AC5
:101B2000150E0E150A04000A1F1F1F0E04000E1BBF
:101B30001F030B07130E0E0E041E060F091B001CBD
:101B40001211121C000047414D452050415553458C
:101B500044007472793A200046656174757265209C
:101B6000466F756E642E004167656E742043686130
:101B70006E6765640047616D65204F76657200533E
:101B8000636F72653A0053656E64696E67204761E2
:101B90006D650044617461202E2E2E0053756363C1
:101BA00065737366756C2E00736565202773636FAC
:101BB00072652E7478742700507265737320746F89
:101BC000007374617274207468652067616D6500CC
:101BD0004C6576656C20312C205374617274004C16
:101BE0006576656C20757021004C6576656C2032D9
:101BF0002C205374617274004C6576656C20332C14
:101C00002053746172740046696E616C20526F7566
:101C10006E642C004D6973736564206974005265AD
:101C20007374617274204C2E330073636F7265207D
:101C30002B370073636F7265202B31350073636F30
:101C40007265202B32310053636F7265202B313067
:0C1C5000302100596F7520576F6E210085
:00000001FF
